:020000040000FA
:1000000002087585A70812080012004512003E126A
:10001000005112002D1200378508A722EB9FF5F042
:10002000EA9E42F0E99D42F0E89C45F02275B09DC1
:1000300075A720759C0322E4F5A775E3402275900F
:100040003F75A5C02275807F75A4C0221200038071
:06005000FE75A6782222D5
:10080000E4F5A77597A5F50CF50BF50AF509E47F56
:1008100019FEFDFCAB0CAA0BA90AA809C312001C07
:10082000501800E50C2401F50CE4350BF50BE4350C
:100830000AF50AE43509F50980D4A2AF9200C2AFE7
:0B0840007597DE7597ADA20092AF2205
:0F087500120055787FE4F6D8FD75812002004C03
:00000001FF
